:101000000000042045E900006DE900006FE90000E0
:1010100071E9000073E9000075E9000000000000BC
:1010200000000000000000000000000077E9000060
:1010300079E90000000000007BE900007DE9000084
:101040008DB8000015A400007FE900007FE90000D2
:101050007FE900007FE900007FE900007FE90000F0
:101060007FE900007FE900007FE900007FE90000E0
:101070007FE90000194300007FE900007FE90000DC
:101080007FE900007FE900007FE900007FE90000C0
:101090007FE900007FE900007FE900007FE90000B0
:1010A0007FE900007FE900007FE900007FE90000A0
:1010B0007FE900007FE90000000000000000000060
:1010C0007FE900007FE900007FE900007FE9000080
:1010D000113600007FE900007FE9000099C7000099
:1010E0007FE900007FE900007FE9000000000000C8
:1010F000000000007FE90000000000007FE9000020
:1011000000000000000000000000000000000000DF
:1011100000000000000000000000000000000000CF
:1011200000000000000000000000000000000000BF
:1011300000000000000000000000000000000000AF
:10114000000000000000000000000000000000009F
:10115000000000000000000000000000000000008F
:10116000000000000000000000000000000000007F
:10117000000000000000000000000000000000006F
:10118000000000000000000000000000000000005F
:10119000000000000000000000000000000000004F
:1011A000000000000000000000000000000000003F
:1011B000000000000000000000000000000000002F
:1011C000000000000000000000000000000000001F
:1011D000000000000000000000000000000000000F
:1011E00000000000000000000000000000000000FF
:1011F00000000000000000000000000000000000EF
:101200000348044B834202D0034B03B11847704795
:10121000CC000020CC000020000000000548064B58
:101220001B1AD90F01EBA301491002D0034B03B1E4
:1012300018477047CC000020CC00002000000000C0
:1012400010B5064C237843B9FFF7DAFF044B13B10E
:101250000448AFF300800123237010BDD0000020AC
:10126000000000004027010008B5044B1BB10449F1
:101270000448AFF30080BDE80840CFE7000000005D
:10128000D400002040270100A3F5803A704700BF3A
:10129000154B002B08BF114B9D46FFF7F5FF0021B2
:1012A0008B460F461148124A121A0EF0CDFA0C4B1B
:1012B000002B00D098470B4B002B00D09847002004
:1012C000002104000D000B480EF022F90EF050F939
:1012D0002000290000F011F80EF020F900000800AD
:1012E000000000000000000000000420D0000020EA
:1012F000F854002045F50000704770B505460E46CD
:101300003146284602F014FF03F03CFA044600F090
:1013100019F802F037FF18B1204603F037FAEFE76B
:10132000204603F0F3FA204602F032FFF1E710B551
:101330000C4603F005FA204610BD00F0F9B800F0A5
:10134000EEB8000010B5044603F0DCF9204602496F
:10135000BDE8104000F044B82F13000038B5044633
:10136000154600F093F904F68213C4F87859C4F8CE
:101370007C3904F58C504FF4006304F58C55A4F8C7
:10138000803904F67C110C35043006F05FF92846EC
:1013900006F0BEF904F58D5104F580530431881D23
:1013A000C3F8A4014FF40070A3F8A8010948002273
:1013B000C3E9EC02A3F8A02183F8AC232846234616
:1013C000054A06F0ACF9201D0449224605F038FC18
:1013D000204638BDF71400000D1600001914000057
:1013E00010B5064C0A4601462046FFF7B7FF00F04D
:1013F000D5F9844200D0FEE710BD00BFF000002008
:10140000D0F87C2900F682139A4204D100F59D5051
:10141000103003F0F3BA7047FFF7F2BFF8B5044697
:10142000061D00F58055304605F01BFD95F8A031EE
:1014300010B1022B39D00FE0012B4BD0022B34D04E
:10144000002BF0D1204600F0AFF908B102F056F9B8
:10145000204600F0B3F940B1D4F87C5904F682106C
:101460002D1AA9B200293FD1F8BD04F58C500430E3
:1014700006F0F0F80028EFD1304605F038FD0123E2
:1014800085F8A031304605F047FDF0B194F898702A
:10149000304605F01AFE2FB194F8983013B90123A5
:1014A00085F8AC33022385F8A03104F58C50043064
:1014B00006F008F90028CFD195F8AC3385F8A001E3
:1014C000002BB0D085F8AC03ADE7304605F02DFD1C
:1014D00085F8A10104F58C5095F8A111043006F0AF
:1014E000C3F80028CED0B7E7D4F878399847ADB222
:1014F0008542B9D0FEE708B500F050F9BDE80840D4
:10150000FFF78CBF00F68213C0F87C394FF40063FC
:10151000A0F8803900F59D50103003F06FBA08B57F
:1015200000F03CF918B1BDE80840FFF7EBBF08BD7B
:1015300038B504460D4600F031F940B100F58C5045
:101540002A4621460C30BDE8384006F0EDB838BDDB
:101550002DE9F0410C46A0B016461F4600F038F9C0
:1015600023461A4ADFF86C80802168460EF07EFA26
:1015700068460EF025FB69460246002001F084F81B
:101580006D460024BC4213D1A4B204EB44041049BC
:101590000DEB04000EF0AEFA68460EF011FB0DF1F3
:1015A0000101421E002001F06FF820B0BDE8F0817B
:1015B000292CEAD0A4EB8401335D284642468031D1
:1015C0000EF054FA01340335DCE700BFC41B010000
:1015D000DE1B0100D81B010038B500F5805400F572
:1015E0008D55D4F8A4310A355B1B9BB251B91A460C
:1015F000294600F0A5FE4FF40073C4F8A451A4F8E6
:10160000A83138BD2A46FFF7A3FFF4E7FFF7E4BF90
:1016100005F01FBD0020704701B1FEE7006870476C
:101620001C282ED8DFE800F00F3011132D151719E4
:101630002D2D2D2D1B1D1F212D2D2D272D2D2D2524
:10164000232D2D292B00002070470E2070470B20E2
:1016500070470C2070470920704703207047022014
:1016600070470420704711207047122070471320E4
:1016700070471420704716207047172070471820B5
:10168000704700F58040704701207047F8B5064666
:10169000044646F8041B4FF4006200F1D1013046C5
:1016A00005F0C1FA0025266504F1540304F1740223
:1016B000C3E9005508339342FAD1C4E91E55A4F892
:1016C000745004F1800005F042FD2F4A84F89850D0
:1016D0000421C82384F8C8102C49C4F89C50C4E9DC
:1016E00028232B4B0968C4F8CC100022C4E92B3501
:1016F0004FF6FF77002304F51761C4E92E23C4E9F0
:101700003023A4F8A870C4F8B45084F8D050A4F8DA
:10171000D258A4F84C5984F84F59A4F8505984F879
:101720005259C4F85859C4F85C59C4F86059C4F8FF
:10173000645984F86859C1E90023236803B9FEE7B6
:10174000144B15491C602246304605F07CFA78227D
:10175000002104F6D4000EF077F87722002104F17E
:10176000B80084F8535984F8555984F8547984F8AA
:101770004E5984F8D15801F079FB04F1AC0003F024
:101780003DF92046F8BD00BF00F8FF0778210100B1
:10179000511B0000A8140020B71B0000014B186863
:1017A000704700BFA814002090F8C830042B1ABF5F
:1017B00090F8980080F001000020704790F8C83041
:1017C000012B06BF90F8980080F0010000207047C0
:1017D000D0F858390133C0F8583970472DE9F8432B
:1017E000994690F850390D1E0446164608BF7025DC
:1017F00013B10D20BDE8F88300F1B807294638463B
:1018000001F0ACFB0028F4D194F8D22894F8D33836
:101810009A420AD00B220021384601F027FB04F13E
:10182000AC0003F0EBF80320E4E704F150082B468A
:1018300006228021404605F089FE58B9206D1FFA26
:1018400089F2314605F016FC20B9404605F061FEEC
:101850000028CFD00328CDD1DCE7000001380428D0
:101860009ABF024B185C0020704700BFE11B0100CB
:101870002DE9F8430C4616461A4601F00F0311F005
:101880000F0106D1022E02D1B83001F0EFFA00208C
:101890000DE090F8D35890F8D2E8A5EB0E070E2F84
:1018A00007DDB8300E22002101F0E0FA0320BDE888
:1018B000F883C4F30117C419B84694F8D1488C4290
:1018C0003BD129460E293CD801F58D7100EBC101B1
:1018D00047F0400444EA83048B8806F0030623F4AF
:1018E0005F7323F0030344EA06241C438B688C8057
:1018F00062F3170301358B6080F8D358C7E70F3CBC
:10190000E4B20E2CFBD804F58D7400EBC40494F8FB
:1019100004C01CF0400F0CD00CF00309C84508D1DE
:10192000CCF38309894504D16FF3861C84F804C085
:10193000C7E70EF1010E5FFA8EFE7545C1D97446F8
:10194000DFE70F39C9B2BDE713460222FFF790BFA8
:1019500038B511F0300F00F1500408BFC0F89C20DA
:10196000154600230622204605F0F0FD48B9294619
:10197000204605F037FD20B92046BDE8384005F087
:10198000C8BD38BD2DE9F74304460D4668461146EB
:1019900091461E4600F0AAFEDDE900782FB918F046
:1019A000010F02D1E6B932461BE004F150064B4666
:1019B00006222946304605F0C9FDC8B94FEA68033A
:1019C00018F0010F18BFE35804EB680018BFDF5987
:1019D000B84768B9304603B0BDE8F04305F099BD9B
:1019E0000D222946204603B0BDE8F043FFF7B0BF03
:1019F00003B0BDE8F08370B50446002694F8D258D1
:101A000094F8D338AB4201D1002033E005F58D7551
:101A100004EBC5021379590616D404EBC5052B79DE
:101A20006FF386132B7194F8D2380133DBB20F2B8E
:101A300084F8D238E2D194F8D33884F8D2680E2BE7
:101A400020D884F8D338D9E7C3F30100C3F3830166
:101A50005379926841EA001103F0030361F07F01BA
:101A6000022BC9B2C2F3170205D12046FFF770FF5F
:101A70000028D2D070BDB3FA83F35B092046FFF78C
:101A800081FFF5E70F3BDBB2D9E700002DE9F84F06
:101A9000D0E92E321343044604D1012384F8683977
:101AA000BDE8F88FB83001F0DEF9284F80460025F8
:101AB0004FF00109EBB24345EFD2D4E92E30C5F126
:101AC0002001A5F12002EB4000FA01F10B4320FABE
:101AD00002F2134313F0010FC5F1200AA5F120060D
:101AE00002D10C370135E5E73A682ABBD7F804B0D4
:101AF000BBF1770F06D1206801F0E6FD082898BFFA
:101B000000F1700B5A4680212046FFF721FF002884
:101B1000C3D1D4E92E3209FA06F629FA0AFA46EABE
:101B20000A0609FA05F123EA010322EA0602C4E9DA
:101B30002E321343D5D1B0E794F86839002BE8D0A2
:101B4000012380212046FFF71DFFE0E7301F010041
:101B5000014B1868FFF79ABFA814002090F898303E
:101B600010B5044633B1D0F8CC308B4204BF00230B
:101B700080F898302046FFF73EFFD8B994F8D0108F
:101B800099B101230C222046FFF7FCFE90B994F88E
:101B9000C83084F8D000042B07D0201D05F05FF971
:101BA0000123C4F8CC0084F898302046BDE81040EA
:101BB000FFF76CBF10BDFFF7D1BFF8B500F15005BE
:101BC00004462846069EBDF81C7005F0BFFC50B9BF
:101BD000206D3A46314605F04DFA20B92846BDE859
:101BE000F84005F096BCF8BD2DE9F04F042B87B006
:101BF00004460D46174602D0052B18D0FEE71146C5
:101C000004A800F08BFDDDE904864FF0070906F01B
:101C1000010BB8F1000F13D1BBF1000F10D10D2251
:101C200029462046FFF790FE07B0BDE8F08F114629
:101C300004A800F07FFD4FF00809DDE90486E6E71F
:101C400004F1800A504605F05DFB0DF10A0203A97C
:101C5000504605F038FB504605F05BFB002384F846
:101C6000503904EB66007310BBF1000F02D0E3584B
:101C700053F80880C047012384F85039064618B14C
:101C8000FFF7CEFC0246CBE7BDF80A300193039B79
:101C900000934A463B4629462046FFF78EFF002820
:101CA000C2D03246BCE708B50022FFF74DFE08BDA2
:101CB00037B50223B0F888208DF80730B0F88630A9
:101CC0009A4204461ED1206802F064FD94F852291D
:101CD00022440023FF2182F8541982F84E3982F8F9
:101CE000533982F855398021C4F85839C4F85C3921
:101CF000C4F86039C4F8643970222046FFF728FE22
:101D000088B1FEE70DF10701803005F038FA05468D
:101D100000B1FEE79DF807302068022BD3D002F017
:101D200037FD024B1D60002003B030BDA814002019
:101D300010B50446006802F036FD0146206DBDE88E
:101D4000104005F086B910B50446006802F0C7FDE2
:101D50000146206DBDE81040FFF75ABC37B500239F
:101D6000054601A98030019305F088FA0446A0B920
:101D70009DF80410286802F0B4FD044668B928688C
:101D800002F011FD48B195F852392B4493F84E39C1
:101D90001BB1286802F02CFD0446204603B030BD7C
:101DA00010B50446006802F007FD410001F0FE0195
:101DB000206DBDE81040FFF72BBC13B5002304468F
:101DC0000DF1070180308DF8073005F0D8F958B9CA
:101DD0009DF8073023B1013B012B07D9072003E011
:101DE0000146206802F0EEFC02B010BD0121F8E7C8
:101DF00010B5044654F8500B02F076FD014620461B
:101E0000BDE8104005F092BA13B504460DF1060185
:101E1000803005F0E3F920B9BDF80610206802F023
:101E200065FD02B010BD10B50446006802F061FD0A
:101E300008220146206DBDE8104005F01BB913B51E
:101E40000822044601A9803005F02FFA18B901993B
:101E5000206802F050FD02B010BD10B5044654F8E1
:101E6000500B02F04BFD01462046BDE8104005F046
:101E70005DBA90F852390344006D93F84E1905F09D
:101E8000E8B837B5002305460DF1070180308DF81D
:101E9000073005F084F9044688B9286802F083FC0D
:101EA00030B19DF80730286863B102F0A1FC044608
:101EB00095F852391D449DF8073085F84E39204673
:101EC00003B030BD02F08AFCF1E710B504460068AB
:101ED00003F006FE0146206DBDE81040FFF798BBF9
:101EE00010B50446006803F0FDFD0146206DBDE815
:101EF0001040FFF78DBBF8B505460E4600240127BC
:101F000007FA04F3334204D10134202CF8D1002025
:101F1000F8BD286DE1B2FFF77BFB0028F4D0F7E7AE
:101F2000F7B5002304460D4600F180060127B4F8FA
:101F300086202B60B4F888309A4202D1002003B08A
:101F4000F0BD0DF10701304605F019F90028F6D172
:101F50009DF807301F2B04D82A6807FA03F31343B0
:101F6000E5E70720EBE7D0F8A010FFF7C4BF13B5F3
:101F7000002301A904460193FFF7D2FF10B9019B8A
:101F8000C4F8A03002B010BDB0F8A410503005F075
:101F9000CDB900F1A401803005F020B910B5044698
:101FA000006802F000FC014640B194F85239234425
:101FB00093F95419013118BF01214900206DBDE882
:101FC0001040FFF725BB000037B5002305460DF193
:101FD000070180308DF8073005F0D1F8044620BBAA
:101FE0009DF807300BB3022B22D1286802F0DBFBEF
:101FF000D8B195F85209284490F95439013319D1D0
:10200000D5F8A030C3B15A1E1A4015D15B0811464D
:1020100002F10102FAD180F85419084BB5F8A42056
:102020002868C9B202F0EFFB0446204603B030BD79
:102030000C24FAE70D24F8E70724F6E7492A000004
:1020400013B5044601A9803005F018F928B90199A3
:10205000012204F1B80000F03DFF02B010BD13B53D
:10206000044601A9803005F009F928B90246019912
:1020700004F1B80000F02EFF02B010BDD0F89C10A3
:10208000503005F0AFB910B500F1500404212046DE
:1020900005F0A8F928B920460321BDE8104005F055
:1020A000A1B910BD0321503005F09CB9002150307A
:1020B00005F098B910B500F150040521204605F04F
:1020C00091F9F8B90C21204605F08CF9D0B9182106
:1020D000204605F087F9A8B92221204605F082F9AB
:1020E00080B940F20121204605F07CF950B9402129
:1020F000204605F077F928B920464121BDE8104077
:1021000005F070B910BD10B5044602F045FB01465C
:1021100004F15000BDE8104005F09FB9006D0121A9
:10212000FFF776BA006D0021FFF772BA006D042147
:10213000FFF76EBA0C20704713B504466946006875
:1021400002F0DEFB206D0822694604F093FF02B026
:1021500010BD0221503005F017BA90F8C810006D7C
:10216000FFF756BA73B504460E4680300DF10701ED
:1021700005F005F8054690BB9DF80730022B1FD0EF
:1021800003D9DA1E012A88BF032384F8C83000234C
:1021900084F8D0300C22012331462046FFF7F2FBB1
:1021A00094F8C830042B17D060B9201D04F057FEF6
:1021B0000123C4F8CC0084F89830284602B070BDE2
:1021C0000123E2E70A4B1B68C4F8CC30012384F8F2
:1021D000983084F8D060F0E70028EED0F9E7FFF7F8
:1021E0001FFA314602462046FFF7B2FB0546E4E7F8
:1021F000782101000C2A10B51C4603D0712A06D0A4
:10220000002010BDFFF7AEFF20700120F9E700F0BD
:102210008BFDF9E7F0B585B004460D4602A81146DE
:10222000002716468DF8077000F06CFADDE90230E1
:1022300000F0010273B96AB90DF10703324629466D
:102240002046FFF7D7FFF8B90D2229462046FFF7B1
:102250007BFB17E0411084F8507904EB60000AB171
:102260006258D358984701228DF8070084F8502906
:1022700018B1FFF7D5F90246E7E73346294620466D
:10228000FFF7F6FA8DF807009DF8070005B0F0BDDE
:1022900073B5002304460D46803001A9164601930C
:1022A00004F0ECFF024640B1FFF7BAF929460246B6
:1022B0002046FFF749FB024604E0032E15D004D860
:1022C000022E0CD0104602B070BD331F012BF9D87E
:1022D000019A334629462046FFF786FCEBE7019B2F
:1022E00029462046FFF7C4FAE5E7019A2946204629
:1022F000FFF790FFDFE737B504460D46803001A9B0
:1023000004F0BCFF80B9019A012A0FD008D9931EAE
:10231000032B10D9052229462046FFF715FB03E0C1
:1023200029462046FFF7BFFC03B030BD29462046B2
:10233000FFF7BEFCF8E729462046FFF7A9FFF3E7C1
:1023400073B5012300F18005044680F8503900265A
:1023500028468DF8076004F007FF042384F8C8308E
:1023600084F898600DF10701284604F008FF98B939
:102370009DF907309DF80710B3420DDAD4F85C39A7
:102380000133C4F85C39C1F3011384F8523943B105
:1023900006222046FFF7DCFA002384F8503902B009
:1023A00070BD2368002BF3D02046FFF7A4FF38B19F
:1023B000FFF736F99DF8071002462046FFF7C4FAEA
:1023C00094F8D32894F8D2389A4202D02046FFF7E6
:1023D00012FB94F852299DF80730224403F00F03B2
:1023E00092F8D11831B199421EBFD4F86019013169
:1023F000C4F860190F2B14BF0133012382F8D138C0
:10240000CAE710B50446006801F0E0FAC1B2206DD9
:10241000BDE81040FFF7FCB810B50446006801F0B5
:1024200085FDC1B2206DBDE81040FFF7F1B8000096
:1024300010B50446006802F052FAB8B10A280DD867
:102440004FF4FA6303FB00F101F55C2101F53461FF
:1024500004F15000BDE8104004F077BF192807D8F8
:10246000044941F2883303FB0011F1E70249EFE729
:102470000021EDE7B0DB2300CC3F0D0013B504468F
:102480000DF10701006801F019FB30B99DF8071044
:10249000206DFFF7BDF802B010BDFFF7C1F801468F
:1024A00004F1500005F070F8F5E713B50023044679
:1024B0000DF1070180308DF8073004F083FE20B95C
:1024C0009DF90710206801F00DFB02B010BD13B597
:1024D00004460DF10701006801F0E6FA30B99DF8F5
:1024E0000710206DFFF794F802B010BDFFF798F8C1
:1024F000014604F1500005F047F8F5E713B5002355
:1025000004460DF1070180308DF8073004F05AFEC3
:1025100020B99DF90710206801F0AEFD02B010BD92
:1025200013B504460DF10701006801F0F3FA30B964
:102530009DF80710206DFFF76BF802B010BDFFF794
:102540006FF8014604F1500005F01EF8F5E713B5E9
:10255000002304460DF1070180308DF8073004F0A8
:1025600031FE20B99DF90710206801F0DDFA02B0B4
:1025700010BD37B500F1800504460DF1060128466F
:1025800004F0FDFD60B90DF10701284604F01AFEC4
:1025900030B99DF907209DF80610206801F07EFDF6
:1025A00003B030BD13B504460DF1060154F8500BCD
:1025B00001F08CFD30B9BDF80610204604F0B6FEDF
:1025C00002B010BDFFF72CF80146204604F0DCFFF6
:1025D000F6E713B504460DF10601803004F0FEFD68
:1025E00020B9BDF80610206801F07CFD02B010BDD6
:1025F000FEE7FEE710B5044602F084F9FFF72EF976
:102600000146206DBDE81040FFF702B837B5002342
:1026100000220446CDE9002300F023FF6946054669
:1026200004F1800004F006FE60B9DDE90032AB423F
:1026300072F1000108D35B1B62F10002C4F870392B
:10264000C4F8742903B030BD0720FBE700F5176319
:10265000D3E90023503004F093BE10B5044600685F
:1026600003F036FA01462046BDE81040FFF743BCB0
:1026700010B50446006803F02FFA01462046BDE875
:102680001040FFF738BC00001346074A10B4044658
:10269000106828B10A4621465DF8044BFFF79EB842
:1026A0000D205DF8044B7047A8140020F0B5013AE6
:1026B00004460C26002082420DD870430A1809589F
:1026C0008B420BBFD2E901010023C4E90001C4E938
:1026D00000332046F0BD15186D0806FB05F7CF59ED
:1026E0009F4234BF681C2A46E5E7000010B50B4640
:1026F000044603492A22FFF7D9FF204610BD00BF38
:10270000381D010010B50B46044603491622FFF799
:10271000CDFF204610BD00BF301C010010B50B4698
:10272000044603490322FFF7C1FF204610BD00BF46
:102730000C1C010010B50B46044603490322FFF7A9
:10274000B5FF204610BD00BFE81B010004F081BCAE
:102750000A21503004F046BE0421503004F042BE3D
:10276000F8B50646174600F150050C4600296CD016
:10277000002A71D18A880968284604F05EFE002884
:1027800061D194F91510306DC9B2FFF7DFFF002851
:1027900059D1306D8021FFF7D9FF002853D1002C8B
:1027A0005FD0E37D03F001019B074FEA011101D5E2
:1027B00041F02001284604F0B9FD002843D1284605
:1027C00004F063FE014600283DD104B1A179306DCB
:1027D000FFF7BCFF0146B0BB04B1A17D306DFFF730
:1027E000B5FF80BB002C3ED0D4E90223284604F07C
:1027F000C7FD40BB284604F067FE20BB284604F016
:1028000044FE00BB3946284604F0ECFDD8B9284602
:1028100004F05AFEB8B9284604F037FE014690B9D4
:1028200004B1217D306DFFF791FF60B9F4B12169EA
:10283000284604F08AFD30B9284604F045FE0038E9
:1028400018BF012000E00120F8BD284604F06EFD0D
:102850000028F8D1214696E70021284604F066FDBD
:102860008DE72146A6E700220023BFE72146DFE7E8
:102870000901F8B561F07F0100F1500704461546E3
:102880001E460622712301F0F001384604F05EFE78
:1028900050B9324629462046FFF762FF20B9384634
:1028A000BDE8F84004F035BEF8BD0000084B70B537
:1028B0001E680C46014630461546FEF7ABFE2B4619
:1028C000014622463046BDE87040FFF7D1BF00BF49
:1028D000A81400202DE9F34704469DF828A01546CA
:1028E0001E4601B1FEE790F8531900293DD041F092
:1028F00080018BB31B6893F80090C9F3001995F819
:102900001B80002304F1500784F85339062238460F
:1029100008F0010804F01AFE38BB5046FEF780FEAE
:102920000146384604F05EFDF8B9206D494604F0D2
:1029300090FBD0B9206D414604F08BFBA8B9BAF1E9
:10294000000F0BD02B681B781B0711D4384602B040
:10295000BDE8F04704F0DDBD9946D0E75246314668
:102960002046FFF7FDFE0028ECD002B0BDE8F0875E
:10297000B8F1000FEAD00DF10301284602F071FB17
:102980000028F2D101A9284602F042FB0028ECD130
:102990009DF80310206DFFF7D9FE0028E5D10199BD
:1029A000384604F0D2FC0028D0D0DEE7F7B51E464A
:1029B000084B1F680C46014638461546FEF72AFEAE
:1029C000009601462B4622463846FFF783FF03B0A8
:1029D000F0BD00BFA8140020F8B50446164601B1AA
:1029E000FEE7FF2390F9547980F85439FEF714FE7E
:1029F00004F1500501F0FCFE39230622802128460F
:102A000004F0A4FDF0B9206DF9B2FFF79FFEC8B93C
:102A1000206DF1B2FFF79AFEA0B9284604F079FDC7
:102A200080B9802130230622284604F08FFD01461C
:102A300040B9206DFFF78AFE20B92846BDE8F8406E
:102A400004F067BDF8BD000038B5074B1D680C46A3
:102A500001462846FEF7DEFD224601462846BDE82F
:102A60003840FFF7B9BF00BFA814002010B50446D6
:102A700054F8500B01F0C4FE01462046BDE810405A
:102A800004F0B0BC90F852390344006D93F8551926
:102A900004F0DFBA10B5044654F8500B01F01DFFE6
:102AA00002460B462046BDE8104004F069BC10B554
:102AB00090F8521901F6551104460144803004F093
:102AC0006EFB48B994F8523920682344BDE81040A1
:102AD00093F8551901F09ABE10BD73B5044600680D
:102AE00001F0D8FE0546B8B904F18006B4F8883084
:102AF000B4F886209B1A9BB2012B0DD90DF106016B
:102B0000304604F06BFB30B9BDF80610206801F0C8
:102B100089FE0028EAD00546284602B070BD73B58C
:102B20000446006801F0C2FE0546B0B904F1800613
:102B3000B4F88830B4F886209B1A9BB2072B0CD9C6
:102B4000082201A9304604F0B0FB28B90199206899
:102B500001F072FE0028EBD00546284602B070BD99
:102B600013B504460DF10601803004F037FB20B99F
:102B7000BDF80610206801F071FE02B010BD13B55B
:102B80000822044601A9803004F08FFB18B901998E
:102B9000206801F06DFE02B010BD13B504460DF1C2
:102BA0000601803004F01AFB20B9BDF80610206839
:102BB00001F038FE02B010BD13B500230446082210
:102BC00001A98030019304F070FB18B901992068C5
:102BD00001F032FE02B010BD13B500230DF1070164
:102BE000044680308DF8073004F0D9FA014630B938
:102BF0009DF8073020682BB901F0D2FD0146084648
:102C000002B010BD0049F7E7AD28000013B5044637
:102C10000DF10601803004F0E1FA20B9BDF806108C
:102C2000206801F0C5FD02B010BD7FB500F1800540
:102C30000C460DF10A0203A9284604F04FFB064694
:102C400000286CD1BDF80A207F2A6BD8264603994C
:102C500056F8060BA2800CF0E1FC3146284604F041
:102C60008EFA064600285AD1A379A376E37E23F094
:102C7000170343F004032146E37640F60473C4E9E6
:102C8000040021F8183F284604F079FA002846D1BC
:102C900004F11901284604F072FA00283FD10DF121
:102CA0000601284604F07BFAC8BBE37E9DF80620A7
:102CB00062F38203E37602A9284604F070FA70BB3F
:102CC000E37E9DF8082062F30003E3760DF107012F
:102CD000284604F064FA10BBE37E9DF8072062F3F7
:102CE0004103E3760DF10901284604F058FAB0B922
:102CF000E37E9DF8092062F30413E37604F11401E6
:102D0000284604F07FFA50B904F11001284604F077
:102D100079FA20B904F11A01284604F030FA304655
:102D200004B070BD0626FAE711F0300F38B504463E
:102D30000D4600D0FEE7006801F035FDA0B1206827
:102D400001F059FD0146D0B12046FFF76EFF034662
:102D500058B90C49206801F050FD034628B905F028
:102D60000F0584F8535938BD0D231846FEF758FC5B
:102D7000294602462046BDE83840FEF7E9BD032358
:102D8000F3E700BFAD29000030B500F1800487B043
:102D9000054602A9204604F0F2F920B99DF8083052
:102DA000082B02D0072007B030BD0DF109012046E5
:102DB00004F0E5F90028F6D10DF10A0203A9204636
:102DC00004F08CFA0028EED1BDF80A30102BE9D1BE
:102DD0000DF10A0204A9204604F080FA0028E2D18D
:102DE000BDF80A30102BDDD10DF10A0205A92046ED
:102DF00004F074FA0028D6D1BDF80A30102BD1D1D6
:102E0000059B0193049B00939DF80920039B9DF86B
:102E10000810286801F056FDC5E737B500F18005B8
:102E20000446002301A928468DF8033004F0EAF98E
:102E3000A0B9B4F88620B4F888309A4207D19DF83A
:102E40000330206801995BB901F03FFD06E00DF108
:102E50000301284604F0A3F90028F0D003B030BDE8
:102E600001F037FDFAE71B207047000030B5184C21
:102E7000002325688D4224D16568954221D1D0E98F
:102E80000225C3F1200405FA04F4A3F12001DA407D
:102E9000224325FA01F10A4312F0010FC3F1200485
:102EA000A3F120020CD1012121FA04F401FA02F26B
:102EB00022439940D0E900430C431343C0E9004347
:102EC00030BD0133DBB21B2B04F10C04D1D1F7E789
:102ED000301F01002DE9F04700241F4D26464FF01A
:102EE000010C95F808E0BEF1000F22D02B688B4250
:102EF0001FD1A4F12003C4F120062CFA06F60CFA27
:102F000003F333430CFA04F7D0E902A96FEA070888
:102F1000DE43BAB14AEA070749EA0303C0E902738C
:102F2000D0E9007307EA08073340C0E9007331B9FC
:102F3000764601341B2C05F10C05D2D14EB1002090
:102F4000BDE8F08708EA0A0306EA0906C0E9023686
:102F5000EDE70720F4E700BF301F010030B5104B4C
:102F600000221C7A9CB11C688C4210D1D0E9023539
:102F7000C2F12004A2F1200123FA02F005FA04F4C0
:102F8000204325FA01F1084300F0010030BD013271
:102F9000D2B21B2A03F10C03E3D10020F6E700BFF5
:102FA000301F010000F1402000F50030002382B006
:102FB000036003680193019B02B0704708B5094B99
:102FC000020103EB0010084B4168C3F84813C168C5
:102FD000C3F808130089FFF7E5FF044B002199545B
:102FE00008BD00BF7420010000400240B014002062
:102FF00073B523490122D1E84F3FDBB28DF807308A
:103000009DF807306BB1BFF32F8F1E4BD3F804210F
:103010001D4B12B91A68D20730D518680230400823
:1030200021E0C1E8462F002EE5D1164C0225C4F858
:103030000853BFF35F8FD4F80431134AABB1136860
:1030400001331360BFF35F8F4FF48270FFF7AAFF65
:103050001068C4F8045301304008BFF35F8F0E704E
:1030600013680133136002B070BD1068C4F80453D4
:1030700001304008BFF35F8F0B70F4E71868CEE7AC
:103080000015002000400240041500202DE9F04109
:1030900006460C46FFF7ACFF0546BFF35F8FDFF82F
:1030A0002080D8F80475BFF35F8FFFF7A1FF306071
:1030B000854218BFD8F804752760BDE8F08100BFCD
:1030C0000040024013B5044601A96846FFF7DEFF41
:1030D000019A43F6095340F2FF100021E2FB03017D
:1030E000400A009A064B40EAC150490AE2FB03013C
:1030F00024B94FF47A7200230CF092F802B010BD9C
:103100000080841EF8B5194D05EB00130446060136
:103110001889FFF747FF0F462046FFF7D3FF37B95F
:10312000134B3344D3E90223904299411CD33544D5
:10313000104B6A68C3F84823022CEA68C3F80823D6
:103140000AD0032C0CD00A4A012393550A4A137063
:10315000BDE8F84001F029B8BDE8F84005F0F6BA3E
:10316000BDE8F84004F00EBEF8BD00BF74200100B9
:10317000B014002000400240F01400202DE9F0417E
:103180003D4D3E4E05EB021C1401DCF80C70C6F8F8
:103190000873DCF80470C6F84473D3E90063B042E6
:1031A0005FD9861B002E00DA013B0026401846EB53
:1031B000060703EB070C311832B94FF47A7303FB9F
:1031C0000CF0A1FB031C84442D4B480B40EACC407F
:1031D0004FEA5C36A0FB030E03FB06EE000F40EA4D
:1031E0000E104FEA1E7E43F609534FEA4E2646EA7A
:1031F000D0564702A0FB0308091A03FB0E8E6CEBA6
:103200000E0C40F23140DFF880E048430EFB0C002A
:10321000A1FB0E1E0139704447F6FF7140EB01001F
:10322000C00BC01946F1000720F07F46A0FB030148
:1032300003FB071140F2FF13C01841F10001B2B9BE
:103240004FF4FA2200230BF0EBFF0E4B0B4A234402
:10325000C3E902012B5903F5A87342F82360BDE8C6
:10326000F081A2D2361A002EB8BF01339DE7400A82
:1032700040EAC150490AE8E77420010000400240DA
:10328000D07B6308B01400207B2DE8BDF0B585B07D
:1032900006460F46684601A91446FFF7F7FE019D52
:1032A0002A4A43F6095340F2FF100021E5FB0301CF
:1032B000400A009B40EAC150490AE3FB020124B9DD
:1032C0004FF47A7200230BF0ABFFCDE9020102ABA1
:1032D000224639463046FFF751FF1D4BD3F80435DF
:1032E0009D4203D001A96846FFF7D0FE019B43F63B
:1032F0000952023340F2FF100021E3FB0201400AB1
:10330000009A124B40EAC150490AE2FB030124B97A
:103310004FF47A7200230BF083FF0E4B03EB041380
:10332000D3E90253A84299414FEA041206D301217E
:103330002046FFF7E7FE40BF05B0F0BD064B134443
:10334000DA68034BC3F80423F6E700BF0080841E4D
:1033500000400240B01400207420010038B52A4813
:10336000402200210CF070FA284B00201860284BF6
:103370001870284B00240025C3E9004508F0D0F858
:1033800008F00CF90028FBD0234BC02283F824233B
:103390001022C3F884215A60204A0023C2F808355D
:1033A0004FF48270FFF7FEFD0223C2F844334FF45E
:1033B000A070C2F80433FFF7F5FD4FF48033C2F874
:1033C00048334FF4A270C2F80833FFF7EBFD4FF417
:1033D0000033C2F848334FF4A470C2F80833FFF743
:1033E000E1FD4FF48023C2F848334FF4A670C2F8D1
:1033F0000833FFF7D7FD4FF40023C2F84833C2F873
:1034000008330123136038BDB014002004150020D8
:1034100000150020F814002000E100E00040024008
:103420002DE9F04100260B4F0446B0460A4D87F8BF
:1034300000802B7C1BB120462E7401F0C9FB2B7839
:103440001BB120462E7001F08DFB3B78002BEDD197
:10345000BDE8F081F0140020B01400200120FFF737
:1034600031BE08B5FFF7FAFF4FF47A7200230BF074
:10347000D7FE08BD084611460022FFF707BF00200F
:10348000FFF79CBD08B5FFF7E9FF08BD08461146E8
:103490000122FFF7FBBE0120FFF790BD7047704788
:1034A000044B4FF48022C3F80823BFF34F8FBFF3C0
:1034B0006F8F704700400240024B4FF48022C3F8E8
:1034C0000423704700400240FFF7DCBF1F20704715
:1034D0000222FFF7DBBE0220FFF770BD7FB5134E5F
:1034E000134D694601A8FFF7D1FD009C43F6095230
:1034F00040F2FF100023E4FB0203400A019A40EA75
:10350000C3505B0AE2FB0603CDE90203032202ABD0
:103510003E21FFF733FE4FF40023C5F80433D5F8FE
:1035200004359C42DDD104B070BD00BF0080841E14
:103530000040024037B5044603200D46FFF7C2FDA8
:103540006B46CDE90001032229462046FFF716FE0F
:10355000034B4FF40022C3F8042303B030BD00BF77
:10356000004002400320FFF729BD0000214A08B5B2
:10357000012353604FF4A070FFF714FD4FF4803324
:10358000C2F848334FF4A270C2F80833FFF70AFDBF
:103590004FF40033C2F848334FF4A470C2F8083334
:1035A000FFF700FD4FF48023C2F848334FF4A670B4
:1035B000C2F80833FFF7F6FC4FF40023C2F8483393
:1035C000C2F808330223C2F808334FF48270C2F8FD
:1035D0004833FFF7E7FCFFF7C5FF074B1022C3F89E
:1035E0008420C3F88421002283F82423BDE8084006
:1035F00007F0C0BF0040024000E100E00048704713
:103600004C410240014B986B704700BFB014002042
:10361000114BD3F8042170B522B10222C3F808235C
:10362000FFF7E6FC0D4D0C4E0024D6F80423EB68A2
:103630001A420AD02B8903F1402303F500331B689B
:103640001BB10021E0B2FFF75DFD0134042C05F150
:103650001005EAD170BD00BF004002407420010097
:10366000FFF7FCBE704770474FF08043044AD3F821
:10367000001411604FF0FF32C3F80024704700BF00
:103680000C1500207047000008B500F032FF0A4B0F
:10369000187018B1094B04221A6008BDBFF34F8F90
:1036A0000749084BCA6802F4E0621343CB60BFF3DA
:1036B0004F8F00BFFDE700BF081500200C1500204C
:1036C00000ED00E00400FA050B4B1B68D9070BD492
:1036D0009A070BD459070BD41A070BD413F4F81F0D
:1036E00014BF062000207047012070470820704753
:1036F00002207047032070470C150020704700001F
:1037000001238340074982B0DB4351E8002F019237
:10371000019A1A400192019A41E800200028F4D150
:1037200002B0704754150020074A82B052E8003FAB
:103730000193019B23F001030193019B42E80031B7
:103740000029F3D102B07047541500200123094A23
:1037500082B003FA00F052E8003F0193019B03435B
:103760000193019B42E800310029F4D102B000F03E
:103770001CBD00BF54150020F4230B70CE234B70EA
:1037800036238B704FF0805382B01A6E5B6EC1F897
:103790000330CA7102B0704707B501A8ADF8041034
:1037A00004F078FB03B05DF804FB0000054B01F169
:1037B000080010F8012D03F8012B8842F9D104F01C
:1037C0006BBB00BFA815002007B501A8ADF8041019
:1037D00004F064FB03B05DF804FB000008B5114B76
:1037E00001221A70104B7F221A70104B104A1A6077
:1037F000104ADA60104A00231370104A194642F842
:1038000023100833802BFAD110227F210C480CF0B2
:103810001BF80C48202200210CF016F8BDE80840E7
:1038200004F049BB51180020631500203016002019
:10383000B1150020981500205018002050160020C7
:10384000641500207815002008B504F079FB04F019
:1038500057FB024B00221A6008BD00BF5415002020
:1038600008B50C4B1B7883B904F05EFB04280ED01E
:1038700004D802280CBF0120022008BD0638C0B2BF
:1038800001288CBF02200320F7E70020F5E7032082
:10389000F3E700BF51180020024B187880F00100B8
:1038A000704700BF51180020034B1A7812B1002056
:1038B000187070470D2070475118002010B5084C43
:1038C00023784BB9FFF7CCFF012803D0054B1B68C9
:1038D000DB0703D501232370002010BD0D20FCE77A
:1038E000511800205415002008B504F02CFB28B90D
:1038F00000F0DBFDFFF718FF002008BD0020FFF7F8
:1039000013FFFFF723FFF7E70B688A8873B503F807
:10391000012C05460C4604F007FB022801D100F0FB
:10392000C3FD204600F0A8FC90B1204600F0A9FCA1
:1039300070B1E37E9B070BD4204B2046197800F032
:10394000BEFC1F4B196820464A1C1A6000F0B9FCE7
:103950006369A07983B12668009022690121701EF5
:1039600004F00BFB98B9FFF7DFFE2846214602F072
:1039700094F80D2002B070BD04F072FAE17E206868
:1039800011F0040100F1FF3009D004F035FBFFF71E
:10399000CBFE2846214602F080F80020EAE704F03A
:1039A000E0FAFFF7C1FE06462146284602F075F808
:1039B000002EF2D10220FFF7C9FEEEE74C150020E1
:1039C00050150020004870473016002008B5064BFF
:1039D0004FF4206043F00103984704F0DCFABDE89F
:1039E000084004F0DABA00BFC0200100FB20704795
:1039F00004F0E4BA084604F0E3BA084604F0E2BA78
:103A000007B5ADF8041001A8002104F0DDFA002884
:103A10000CBF0320002003B05DF804FB08B5084686
:103A2000012104F0D1FA00280CBF0320002008BDBA
:103A300007B5ADF8041001A8002104F0CEFA002863
:103A40000CBF0A20002003B05DF804FB08B508464F
:103A5000012104F0C2FA00280CBF0A20002008BD92
:103A6000002004F0BDBA012004F0BABA4FF47A7312
:103A700010B55A430A4C0B4B226008461970FFF7E9
:103A800053FE04F0EDF9206804F07FFA20B1052020
:103A9000FFF736FE002010BD0520FFF757FEF9E7BF
:103AA0005C1500205915002010B50C4621B104F01A
:103AB000EAF92070002010BD0720FCE713B50C4682
:103AC00061B101A804F096FA054A9DF80530127814
:103AD0005E3B9B1A2370002002B010BD0720FBE75D
:103AE0006215002013B50A4B1878084440B210F153
:103AF0005E0F0BDB0024019404F0D6F98DF805006D
:103B000001A804F070FA204602B010BD0720FBE7C0
:103B10006215002021B1034B1B780B700020704709
:103B20000720704762150020F7B50B4C054601A829
:103B30000E4694F9007004F05DFA9DF80530227885
:103B400026705E3B9B1A59B22846FFF7CBFF00B1A7
:103B5000277003B0F0BD00BF62150020F8B5414CDE
:103B600005461026002723684BB12846002221462F
:103B700001F08CFF20682760013804F00AFA013E4A
:103B800004F12004EFD1384C23689A0712D5374F3F
:103B90000120FFF7B5FD3A683549002A284633462B
:103BA00018BF3A4601F080FF386818B1013804F0B8
:103BB000F0F93E6023685B0708D50220FFF7A0FDFF
:103BC0002B490F230022284601F06EFF23681F07B0
:103BD00008D50320FFF794FD25490E23002228462F
:103BE00001F062FF2368DE0608D50420FFF788FD98
:103BF000204B00211A78284601F048FF2368580618
:103C000008D50620FFF77CFD1B4B284693F90010D2
:103C100001F056FF2368D90709D504F094F9054649
:103C2000B0B900F042FC2846FFF76AFD23689A0607
:103C30000DD50024114B187804F012F9104B1868B8
:103C400004F0A3F938B10520FFF75AFD1CB9F8BDFF
:103C500023689B0603D4BDE8F84000F0A6BA01240F
:103C6000E8E700BF5016002054150020781500200A
:103C7000301600205018002058150020591500203B
:103C80005C1500202DE9F047DFF8D4801F4604467C
:103C90008946924600235D0108EB431658F805104B
:103CA00000294DD1202230460BF0CEFD631C48F890
:103CB00005302378B38086F8159086F816A004F0B6
:103CC000DEF8B0716278DFF89C9012F020023ED1ED
:103CD000454405F11008EB7D62F3000388F80730D6
:103CE000FFF7D0FB21788246384604F0E0F807461B
:103CF000FFF7B4FBAAEB0703C01A61F10001C5E9A5
:103D00000201002389F800306378124C13F0200F71
:103D100010D0304600F0A6FA60B198F8073022784B
:103D200062F3410388F807300B4B1B682B610B4B88
:103D30001B782B7500232370BDE8F04700F035BADF
:103D40000133102BA7D1002301341C60FFDE99F84A
:103D50000020BDE7181500201415002010150020C4
:103D60005016002074150020411E10B4164A174B3F
:103D7000092918D8DFE801F005141C1F1F1F1F05B3
:103D80001F1F134912240C7000211170197008288C
:103D90000CD10F4B002018705DF8044BFFF7D6BC18
:103DA0000B49112008700021117019700420F3E7ED
:103DB00007491620F6E7064901240C70002111700E
:103DC00019700528E4E700BF7415002018150020BD
:103DD0005018002070B54378234A244EC3F30011D5
:103DE00011701B074FF0000188B00446317034D5C4
:103DF0001A220DF106000BF027FD631C00936846A4
:103E00002378ADF8043000F04DFA0446684600F01F
:103E100038FA10B30CB3164B1B789C421FD05A1EB5
:103E200094421ED001339C4217D1124B124D134ABB
:103E300029681160124A02931470214601226846D3
:103E4000327000F03CFA296868464B1C2B6000F089
:103E500038FA0C49684600F003FA08B070BD0A4B06
:103E6000E4E70A4BE2E700BF7415002018150020B4
:103E70004C1500201C1500205015002014150020A2
:103E800010150020A81500202C1500203C1500203E
:103E90002DE9F047DDF820A0144C90461F460D4652
:103EA00029B92160BDE8F0470120FFF74FBCFFF7BB
:103EB000E9FAA946064619F8011B504603F0F7FF38
:103EC0008246FFF7CBFAA6EB0A06801B61F10001E0
:103ED000C4E90201C4F800902B78A38084F815800F
:103EE000A77503F0CCFFA071DCE700BF78150020B8
:103EF00007290ED8012303FA01F111F0D20F03D1E3
:103F000011F02C0F03D170470220FFF71FBC0320D4
:103F1000FBE7704708B503F0C3FF034B1870BDE81B
:103F200008400620FFF712BC581500206FF0630010
:103F30007047000010B50A4C204600F09DF970B1A2
:103F4000204600F09EF950B1E37EDB0607D4054B16
:103F5000A36020460449BDE8104000F081B910BDBF
:103F6000301600202C150020A8150020704770473F
:103F700000F0CABCFFF774BBF8B50020DDE90665A8
:103F800017461C4607F090FA0A4B1F7094E80F0082
:103F9000094F0A4C87E80F0096E80F0084E80F00ED
:103FA00095E80F00064C84E80F00BDE8F8400020BB
:103FB00007F07CBA4C1500203C1500202C15002081
:103FC0001C15002010B500200C4607F06DFA034BBD
:103FD00000201C60BDE8104007F068BA50150020B2
:103FE00010B500200C4607F05FFA054B1A68A24294
:103FF00038BF1C600020BDE8104007F057BA00BF72
:1040000050150020A0F10B030F2B9DBF024B1B1876
:1040100013F90B0C7F2070476415002008B5FFF7DB
:10402000F1FF074B93F900307F2B04D09842A8BFD3
:10403000184640B208BD7F2808BF0020FAE700BF3D
:104040006315002010B508460C4603F009FF03F085
:104050006BFF022801D100F027FA2046FFF7DEFFB0
:1040600003F00FFF03F077FFFFF75EFB00280CBFA4
:104070000D20002010BD000010B50C4603F0FFFE1F
:104080007F2C07D0044B1C70FFF7C8FF03F0F9FE2C
:10409000002010BD0720FCE763150020A1F10B03F1
:1040A0000F2B10B50C460DD8074B0B4403F80B2C07
:1040B00003F0E5FEA04203D1FFF7B0FF03F0E1FEFD
:1040C000002010BD0720FCE76415002021B1034B40
:1040D0001B880B8000207047072070476015002068
:1040E0007047000008B5034B08461980FFF7F8FF3A
:1040F000002008BD6015002010B50C4C00F0D3F96D
:1041000000F05EF8FFF7A0FBFFF7BCFA23780BB9CD
:10411000FFF7A9FA207800F0E6F900F077F9FFF749
:1041200025FABDE8104000F0C3B900BF0815002013
:1041300010B5124C23780BB1FFF7DEFF104B0122B4
:10414000C3F8402507F0D4F900F0B0F9FFF706F9FD
:1041500000F016F923780BB9FFF784FA207800F005
:10416000BDF9FFF781FAFFF739FB00F01FF800F007
:1041700099F9FFF777FA0023237010BD0815002086
:1041800000E00140014B1878704700BF081500207F
:1041900010B50446FFF7E2FC00F0A9F900F016F8AC
:1041A0002046BDE81040FFF73BB97047034B0022A3
:1041B000C3F8042501221A60704700BF00C0004008
:1041C000014B01225A60704700C000401A4BF7B5FE
:1041D0001A4CD3F8002125688AB10022C3F80021C7
:1041E000D3F800210192019AD3F80825D3F80835B5
:1041F000920544BF6FEA83536FEA93532360FFF73E
:104200002DF90F4B0F4FD3E90026821A61EB0606FA
:1042100097424FF00002B2413FBF074A01261660A5
:10422000C3E900012368AB4204D003B0BDE8F0400D
:1042300003F02EBE03B0F0BD00C0004054180020B3
:104240005818002080C3C90170477047034B186895
:104250000028B8BF033040F387007047541800208F
:1042600000F0B6BF08B500F0ECFD00F44050A0F53A
:1042700000535842584108BD03681878C0F3C00085
:10428000704707B50DF1070100F0B2FE40B99DF887
:104290000700A0F108035842584103B05DF804FB41
:1042A0000020FAE707B500230DF107018DF807306C
:1042B00000F0D7FE9DF8070003B05DF804FB00F0A6
:1042C000E6BE00F0B5BE0000074A084B1968136847
:1042D00099421FBF1368591C116003F07F031ABF76
:1042E000034AD05C0020704764180020601800204A
:1042F00068180020074B0022C3F8002182B0D3F8D1
:1043000000210192019A0122C3F804231A6002B02D
:10431000704700BF00D00040154BD3F8002113B503
:1043200022B3D3F80823D20720D50022C3F80021F6
:10433000D3F800210192019A0E49D3F808450E4B9B
:104340001A680868121A7F2A06D81A68501C186062
:1043500002F07F02094884541B680A689B1A7F2B6D
:1043600081BF034B0122C3F808235A6002B010BD7D
:1043700000D0004064180020601800206818002059
:1043800038B5802200211C480BF05EFA1B491C48FE
:1043900000230B6003601B4BC02283F80D234FF4F6
:1043A0000052C3F880211A60174BD3F8042542F05D
:1043B0000102C3F80425D3F8002222F00102C3F859
:1043C0000022FFF797FF03680A689B1A032BFAD9AC
:1043D00003680A689B1A032B0CD9042500200402E9
:1043E000FFF772FF013D40EA0400F8D1BDE8384014
:1043F0000BF07EBA0020F9E768180020641800204E
:104400006018002000E100E000D00040074B0122CE
:10441000C3F808235A60064B4FF40052C3F88020BB
:10442000C3F88021002283F80D23704700D000409C
:1044300000E100E02DE9F84F174E01238946337063
:10444000054630B329B3154F4FF0000A144B3C68B2
:104450001B68E41AE4B2A9EB0A039C42C8BFDCB2B1
:1044600084B105EB0A084FF0000BFFF72DFF0BF1AD
:10447000010B5C4508F8010BF7D8FFF73BFF5444EC
:104480001FFA84FACA45E1D3002000233370BDE847
:10449000F88F0720F9E700BFE81800206018002017
:1044A00064180020704770477047704700F002B8EA
:1044B00000F00EB808B50121002006F0C7FF002863
:1044C000A2BF024B01221A7008BD00BFE9180020EC
:1044D000014B00221A707047E918002008B900F05B
:1044E000B3B800F0E3B808B900F0C8B8704700F0FE
:1044F000E5B801207047FFF758BE000010B5134C17
:10450000227B637BA2B1227D92B133B90123637315
:1045100007F05EFE08B908F0A9FC637DABB100238B
:10452000637507F055FE80B1BDE8104008F0A2BCED
:10453000002BF2D00023637307F054FE10B908F08B
:1045400097FCEAE708F0A6FCE7E710BDEC180020AE
:1045500007B50B4801AA01210AF0DCF968B90198F6
:1045600040B1FEF77EFF074B1B69C01A0A2894BFB3
:104570000020012003B05DF804FB0020FAE700BF33
:10458000D4200100EC180020012910B514D0022914
:1045900007D081B90A4C012323760AF084F9A06080
:1045A00009E0084908484FF400720AF081F9FEF763
:1045B00058FF034B186110BD014BD975FBE700BFD5
:1045C000EC18002008190020D42001000838062823
:1045D00014D8DFE800F0060D10131313040008F0E0
:1045E00047BC074B00221A84064B01221A757047FC
:1045F000044B0022FAE7034B01225A75704700BFB3
:10460000081B0020EC18002010B50D4C23686BB17E
:10461000FFF79EFF50B1A28821680A480AF022F9EC
:1046200018B90123A3752060A08010BDE37D002B85
:10463000FBD00023E375A375BDE81040FCF77FBEF7
:10464000EC180020D420010008B51C2200210848E5
:104650000BF0FAF809F06AFA064808F045FB09F091
:1046600099FA054808F020FCBDE8084008F0E8BBCE
:10467000EC180020C8200100D420010008B507F084
:10468000B1FD58B108F006FC08F0C6FE0028FBD1C9
:1046900008F090FCBDE8084008F09ABB07F098FDD0
:1046A0000028F5D008F0E4FBF2E70000024B0022FE
:1046B0009A751A609A807047EC18002038B508F097
:1046C000ABFE05460028FAD10B4CFFF717FF237EFF
:1046D00073B1A16821B1094889B2FCF72EFEA5602B
:1046E000064907484FF400720AF0E2F800B9207654
:1046F000BDE83840FFF788BFEC18002008190020FB
:10470000D4200100024B01221A730020704700BF21
:10471000EC18002010B5094CA37D0BB1E37D1BB153
:10472000FFF772FF002010BD08F076FE0028FBD1D5
:10473000FFF7E4FEFFF768FFEEE700BFEC1800208C
:1047400070B50E4CA37D05460E460BB1FFF7E2FF98
:1047500023687BB9FFF7FCFE18B92560A68000200E
:1047600070BD0748324629460AF07CF8012318B983
:10477000A375F4E70520F3E71846F1E7EC180020ED
:10478000D420010000F04ABA0120704700F063BA5B
:1047900000F054BA00F054BA00487047F820010005
:1047A000143000F089BA8069003818BF01207047C2
:1047B000143000F0ADBA00000148FFF719B900BF8E
:1047C000981B002008B5836923B10348FFF712F94D
:1047D000002008BD0D20FCE7981B0020836913B161
:1047E0000248FFF781B80D20704700BF981B0020DA
:1047F000143000F097BAC06B7047143000F0A8BABC
:10480000243000F0D3BD143000F0BCBA08B5836981
:1048100023B10348FFF7F1F8002008BD0D20FCE7A5
:10482000981B0020836913B10248FFF7E9B80D20F7
:10483000704700BF981B0020836907B553B16846D5
:10484000012200F02BFD04486946FFF7E7F803B0AA
:104850005DF804FB0D20FAE7981B0020836913B173
:104860000248FFF7E5B80D20704700BF981B0020F5
:10487000836907B553B16846012200F00FFD044873
:104880006946FFF7E3F803B05DF804FB0D20FAE793
:10489000981B002008B5836923B10348FFF7E0F8AF
:1048A000002008BD0D20FCE7981B002008B5836997
:1048B00023B10348FFF7D7F8002008BD0D20FCE71F
:1048C000981B0020143000F079BA0022143000F058
:1048D000AEBA0122143000F0AABAFEF7C1BE007DC4
:1048E0007047143000F003BAC08A7047143000F0EB
:1048F000F1B92C307047143000F000BA408D704789
:10490000FEF73ABF0120704700F04EB810B50446DC
:10491000FFF73AFF20B1201DBDE8104000F078B845
:1049200010BD0000034A138803B9FEE7013B138062
:10493000704700BF941B002031B16FF000439942D3
:1049400008BF0121016070470121FBE737B50D4D1C
:104950002B884FF6FF729342044600D1FEE753B90D
:1049600004210DEB0100FFF765FD00B1FEE70199A1
:104970000548FFF7E1FF2B88204601332B8003B069
:1049800030BD00BF941B0020901B0020026848F23D
:104990004E33A2FB0323014613EB520044BF20F029
:1049A0000043581C08607047034B1B8803B9FEE79F
:1049B0000248FFF7EBBF00BF941B0020901B0020B4
:1049C000814238B505460C4600D8FEE7FFF7ECFFFC
:1049D000641BB0FBF4F303FB1400284438BD000053
:1049E000036823B9016004484960FCF785BC5A6834
:1049F0004A60596001607047981B00204368014677
:104A000013B90248FFF7ECBF704700BF9C1B0020A2
:104A100070B504680025056074B16068844205D1F2
:104A2000236865602046BDE87040184743686360AE
:104A3000036845609847F0E770BD43684968981A75
:104A40008A1A92EA000F58BF581AC00F7047000028
:104A500070B505680C4625B9BDE870404B6808483C
:104A600018478B6898476A68831A002B01462368A9
:104A7000B8BF121ABDE870400148A8BF002218470D
:104A8000981B002038B50C461146A2689442034694
:104A900006D00568AC420BD10260FFF7D9FFA460D5
:104AA00038BD94420DD011469268002AF9D1F6E73C
:104AB0002A460021F9E78B68002BF0D09B688B60B9
:104AC000EDE70029F7D1002DE9D0AA681A60E6E7E2
:104AD0002DE9F047936805460C461646984732463E
:104AE000814621462846FFF7CDFFD5F800A04FF0BC
:104AF000000857462FB14A4639462046FFF79DFF2A
:104B000058B1B8F1000F0BD1C4F808A031462C60A1
:104B10002846BDE8F047FFF79BBFB846BF68E9E706
:104B2000D8F80830A360C8F80840BDE8F08770B531
:104B3000066804460D467EB18B6898477368C01AB4
:104B4000002809DB20462A463146FFF79BFF3368E1
:104B50003046BDE87040184729462046BDE8704001
:104B6000FFF776BF10B50446FFF70EFE30B104F133
:104B700008000349BDE81040FFF7D9BF10BD00BFD2
:104B8000582101004160024A01460248FFF7A0BFD8
:104B90004C210100A41B0020002A00DAFEE711448A
:104BA000FFF7F0BF38B50D460446FEF76BFC2A460A
:104BB00001462046BDE83840FFF7EEBF0146024AF5
:104BC0000248FFF75FBF00BF4C210100A41B00207B
:104BD00010B50446FFF7D8FD30B104F10C000349CD
:104BE000BDE81040FFF7A3BF10BD00BF4C2101007E
:104BF00038B500250446C0E90155C5601030FFF7FF
:104C0000A5FE214604F1140000F043F884F890500A
:104C1000FFF7CAFEC4F89400204638BD10B5064C14
:104C200094F890302BB92046FFF7E2FF012384F877
:104C30009030014810BD00BF981B0020FEF724BD36
:104C400010B50446113000F0B7FE04F11400BDE8C1
:104C5000104000F012B890F8903010B504465BB1E7
:104C6000002380F89030243000F0DAFB04F11000CB
:104C7000BDE81040FFF756BE10BD0023C0E9023367
:104C800043600B2303704FF6FF734380103000F036
:104C90002EBB10B50B2303704FF6FF734380002328
:104CA000C0E901330446C360103000F049FB2046E0
:104CB000FFF7E3FF204610BD38B504460D4610301F
:104CC00019B100F097FB10B138BD00F0A9FB656089
:104CD0000020F9E738B5436804460D462BB1103083
:104CE00000F068FB6580002038BD0D20FCE74368BC
:104CF00013B10170002070470D20704708B543685C
:104D000023B1103000F062FB002008BD0D20FCE74D
:104D100008B5436823B1103000F052FB002008BDF5
:104D20000D20FCE743681BB110F8101B00F08CBB92
:104D30000D20704710B444682CB122B923460348B3
:104D40005DF8044B18475DF8044B7047981B002032
:104D500038B5436804460D462BB1103000F0DFFC37
:104D600000B9A56038BD0D20FCE7000038B58568A6
:104D700004461DB10248A8470023A36038BD00BF08
:104D8000981B002038B51D46436804462BB11030EF
:104D900000F0BEFB00B9E56038BD0D20FCE7000067
:104DA000436810B504462BB1C3681BB1024898474D
:104DB0000023E36010BD00BF981B00202DE9F043E5
:104DC0008FB004460D4616460021102202A806AFF9
:104DD00099460DF128080AF037FD102200213846C7
:104DE0000AF032FD1022002140460AF02DFD6368D2
:104DF000DBB10022494602A800F067FA16990022AA
:104E0000384600F062FA17990022404600F05DFA39
:104E100004F11000CDE9007802AB3246294600F0DB
:104E200003FC00200FB0BDE8F0830D20FAE708B5C1
:104E3000436823B1103000F08BFD002008BD0D2029
:104E4000FCE703681888704708B5FFF7FAFF00F41D
:104E50004050A0F500535842584108BD00F440525C
:104E6000B2F5005F034620D120F44E5020F03F0001
:104E700048F2400290421ED00CD8B0F5446F1AD0D0
:104E800005D8C8B1B0F5046018BF01207047B0F56F
:104E90000040F9E703F44C43B3F5404F0BD04CF618
:104EA0004043C01A18BF0120704710F4406F14BF70
:104EB00001200020704700207047B0F5804F0ED3CE
:104EC00000F44053B3F5005F04D080F04000C0F31D
:104ED0008010704700F44C43B3F54C4FF5D10020DF
:104EE0007047102805D0A0F1180358425841C0005F
:104EF00070470420704700F007000123834013F03F
:104F0000220F09D113F0880F08D113F0440F14BFFA
:104F100001200020C0007047042070471020704717
:104F2000430708D000F01803083BDBB2102B04D86D
:104F3000034AD05C7047FF2070470520704700BFD0
:104F40006421010008B50146FFF788FF01F44063C2
:104F5000002814BF05220322B3F5006F06D0B3F575
:104F6000406F17D023B1FF22104608BD0232D2B2E3
:104F70000846FFF7A2FF08B10232D2B201F4404165
:104F8000B1F5004F08D0B1F5404F08D0002918BF47
:104F9000FF22E9E70832EAE70232D2B2E4E7083258
:104FA000FBE708B58388042B05D9FFF74AFFBDE866
:104FB0000840FFF7C7BFFF2008BD8288022A05D935
:104FC00003681B781B0701D5FFF7EBBFFF20704775
:104FD00038B505460C46FFF7F0FFFF281FBF2B68CA
:104FE0001B5C03F00703237014BF0020062038BDAC
:104FF00038B505460C46FFF7E0FFFF281FBF2B68BA
:105000001B5C03F01803237014BF0020062038BD7A
:1050100038B505460C46FFF7D0FFFF281FBF431CDD
:105020002A68DBB200201ABFD3582360062038BD9F
:1050300038B505460C46FFF7C0FFFF2800D1FEE754
:105040002A68431CD9B252FA83F35454220A5A7084
:10505000220C240E9A70DC70EB7E43F00103EB7699
:1050600038BD70B506460D46FFF7A7FFFF2804467A
:105070000BD03268105C00F01800FFF732FF2244BA
:105080000244002053792B7070BD0620FCE770B5F8
:1050900006460D46FFF791FFFF28044600D1FEE7C4
:1050A0003268105C00F01800FFF71BFF2244024436
:1050B000557170BD10B50446FFF77FFFFF2806D07D
:1050C0002368185CFFF717FF0230C0B210BD022042
:1050D000FCE710B50446FFF764FFFF28014610D037
:1050E00023681A7812070CD5A488A0420BDA185C42
:1050F000FFF716FFFF2808D00144C9B28C42B8BFA1
:10510000FF21084610BDFF21FBE70146F9E7F8B58E
:105110000546FFF7DEFFFF2804462DD02846FFF79F
:1051200090FE830506461DD52846FFF7C3FF2F686E
:10513000A988A21C93B210FA82F28A4207EB040CEF
:105140001CDC3A5D02F07F0213449CB210FA83F338
:10515000994213DBBCF80020C2F3C7127F2A01D0AA
:105160009942E6DC2846FFF76FFE28B906F00706ED
:10517000032E01D10134A4B2E0B2F8BDFF24FBE755
:1051800010B50446FFF7C3FFFF2816BF23680020B1
:10519000C01810BD10B50446FFF7F2FF2368C01A0F
:1051A000C0B210BD70B586880546FFF7F3FF044610
:1051B0002846FFF77FFF0444301B80B270BD38B52E
:1051C00004460568FFF776FFA388181A284438BDFF
:1051D0002DE9F0410446E2B0002308A803930D46F0
:1051E00000F034FE23681B781B0751D50DF10B012D
:1051F0002046FFF7EDFE00284AD103A92046FFF71D
:1052000007FF0646002843D10DF110089DF80B203A
:1052100003994346284600F00BFEA16808A800F059
:1052200064FC2046FFF746FF05462046FFF7B2FF25
:1052300007462046FFF7B6FF023D0D2302463946DA
:10524000CDE9008308A8EBB200F05BFC2046FFF735
:10525000A1FF25680246294608A800F0FBFC20466D
:10526000FFF78EFF05462046FFF79CFF2A460346C0
:10527000294608A8009600F031FD2046FFF79FFF61
:10528000014608A800F0B6FDE37E43F01003E37684
:1052900008A800F0F5FD62B0BDE8F08112B1012A66
:1052A00005D070470B6803604B684360704701F19D
:1052B0000803013813F8012D00F8012F8B42F9D1B2
:1052C0007047102200210AF0BFBA30B50B460246E3
:1052D00001F1100518685968144603C40833AB423D
:1052E0002246F7D130BD102308608B80704738B557
:1052F0004FF6FE73C380038A03F0FE0343F4FE43BC
:10530000002543F001030446038245800571856052
:10531000C560456180F85D502830FFF7D2FF04F189
:105320003800FFF7CEFF04F14800FFF7CAFF84F80A
:105330005C50A56504F16000BDE83840FFF73EBC55
:1053400070B5184E044630460D46FEF74FFB2080E0
:105350003046FEF737FB1026A061294604F11C00F9
:10536000002500F011FB32462946C4E9085504F136
:1053700028000AF069FA3246294604F138000AF09A
:1053800063FA3246294604F148000AF05DFA2346E2
:10539000054A43F8602F2046A366FFF7A8FF204682
:1053A00070BD00BF981B0020F9580000008840F035
:1053B000E40070470148FEF7EFB900BF981B0020DA
:1053C000C180014800F056BBA91B002013B500F1B5
:1053D00008030C4608684968012203C32146684651
:1053E000FFF75CFF0248694600F03EFB02B010BDCB
:1053F000A91B0020837810B5044663B90748FEF75F
:1054000053FA50B90548FEF76FFA30B9A378012B6B
:1054100001D00123A370002010BDFEE7981B0020DF
:1054200010B504466030FFF7C9FB0648FEF75CFA8A
:1054300030B90448FEF742FA10B9A37803B1A0705E
:1054400010BD00BF981B002010B504460448FEF7AD
:10545000F9FD20B9A378022B1CBF0223A37010BD55
:10546000981B002038B50123044603FA01F10020FF
:10547000FFF7A6FA4FF4A07303FB00F5237CDB07CC
:105480000BD5A36907489979FEF7DCFD294604F19D
:105490006000BDE83840FFF785BB0248FEF724FAFC
:1054A000F4E700BF981B0020837803F0FB03032B75
:1054B00010B5044625D102888369D20605D49979AE
:1054C0001048FEF7BFFD00B1FEE7A378042B1CBF18
:1054D0000423A370236A1BB1626AA0690121984763
:1054E000A169094800F0CCFA0D2808D1A1694B69DF
:1054F00033B10023C1E90433034800F0C1FA00B11D
:10550000FEE710BD981B0020A91B0020704700007B
:10551000837810B5044683B1033B042B0DD903886F
:105520009B070CD50748FEF7A1FAA378052B01D1FC
:10553000002010BD0523A370FAE70D20F9E70C2029
:10554000F7E700BF981B00208378022B1CBF0223C3
:1055500083701C3000F028BA03889B0710B50446FE
:1055600000D5FEE71048FEF731FA7F2806D094F9FF
:1055700011307F2B01D0984200DD6074FDF771FF80
:105580006369C01A002808DA616E04F160004FF404
:10559000FA32BDE81040FFF7FFBA94F91110204627
:1055A000BDE81040FFF7D0BF981B0020008880F0B6
:1055B0002000C0F340107047008880F00400C0F362
:1055C00080007047008880F04000C0F38010704772
:1055D00082698378526910B50446CAB1072B1CBF93
:1055E00007238370FFF7EEFFB0B10E48FEF7C2FC51
:1055F000A369D3E904128B18C3F5A473C3420BD576
:1056000004F16000A1F5A471BDE81040FFF7C4BA31
:10561000032B01D0032383702046BDE81040FFF721
:1056200043BF00BF981B00202DE9FF470829DDE993
:105630000C8905460F4692461C4603D011F0EF0F29
:1056400013D0FEE780F85C2000F128060FCB86E837
:105650000F0098E80F0005F1380686E80F0099E87A
:105660000F0005F1480686E80F002846FFF79EFF69
:1056700048B9CDE90190CDF8008004482346524650
:105680003946FEF779FC04B0BDE8F087981B00208E
:1056900038B590F85C30934204460D4607D11C3073
:1056A00000F088F9A36D9D4224BF0135A56538BD82
:1056B00037B50446806903681B781D072DD5C37E66
:1056C000D9062AD40DF10701FFF792FC28BBA06987
:1056D000C37EDA0703D494F85C10FFF7D8FC2046A9
:1056E000FFF764FFC8B19DF80730082B15D1A069FA
:1056F00004F138038360C37EDB0709D4A56D294616
:10570000FFF796FC94F85C2029462046FFF7C0FF7F
:10571000A06904F10801FFF75BFD03B030BD38B5A7
:105720008378052B05460BD00024FFF7C1FF2846E0
:10573000EC702C7185F85D40FFF74AFF204638BDBC
:105740000D20FCE737B505460C46FFF72FFF20BBC1
:105750000B681B781A0720D5CB7EDB071DD50DF112
:1057600002012046FFF744FC00B1FEE79DF802303D
:10577000082B12D101A92046FFF74AFC00B1FEE731
:105780000DF103012046FFF76CFC00B1FEE79DF828
:10579000032001992846FFF77BFF03B030BD0000CE
:1057A0002DE9F3411E46044660300D461746FFF7CB
:1057B00005FA0E2E33D003D88EB30B2E31D0FEE770
:1057C0000F2EFCD10021EB7E5B0704D5AA7904F1F2
:1057D0001C0000F0E1F829462046FFF7B3FF002344
:1057E000E37026BB0023009304F11C0823793246A2
:1057F0002946404600F0D1F8A378022B4ED1A97E6D
:10580000AB798B4202D02748FEF71CFC33463A4660
:105810002946404602B0BDE8F04100F0BFB8012182
:10582000D1E729462046FFF78DFF0023E37020468D
:10583000FFF7C2FE0246237904F11C00002AD1D0F2
:105840006A7E9A42CED9012200922946324600F061
:10585000A4F8237901332371EB7E0E2E43F002036B
:10586000EB7615D1A37894F85D10062B1CBF0623A8
:10587000A3702046FFF7F6FD94F85D300133DBB2EC
:10588000052B28BF052384F85D3002B0BDE8F08108
:10589000204602B0BDE8F041FFF79ABE0223A37094
:1058A000ADE700BF981B00208378033B10B504468A
:1058B000042B1DD8DFE803F0030718140300BDE82C
:1058C0001040FFF7F1BD83690A489979FEF7BAFBEA
:1058D000A16920460E23BDE810400022FFF760BFFB
:1058E000BDE81040FFF774BEBDE81040FFF734BEBE
:1058F00010BD00BF981B00200148FFF7D5BF00BFB7
:10590000BC1B0020036A70B505460C46164693B1D1
:10591000B1B122B9426A3146204698472846FFF77E
:1059200045FE68B9E37D9B070AD5227D216928469B
:10593000FFF7AEFE04E0FFF739FE08B90029F1D108
:105940003246214605F11C00BDE8704000F01EB84B
:1059500010B504463AB1826D8A4238BF8165FFF7BF
:1059600025FE50B110BDA165FFF720FE0028F9D13A
:10597000BDE810400348FEF725BBBDE810400148D4
:10598000FEF72EBB981B0020704700000148FFF770
:10599000D1B900BFAC1B0020704770470148FFF72A
:1059A000E5B900BFAC1B00200148FFF7F9B900BF03
:1059B000AC1B00207047000070B5002190B0294852
:1059C000FEF71BF82748FEF74BF82648FEF74BF882
:1059D0002448FDF761FF48B12248FDF785FF00B17B
:1059E000FEE72048FDF76AFF00B1FEE70CAD1D4859
:1059F0004FF6FF710024FDF7CFFE29461948CDE987
:105A00000C44FDF7D3FE17484FF6FE71FDF7DCFEA0
:105A1000102221460DEB020008AE09F015FF2146C9
:105A20001022304609F010FF21461022284609F0C6
:105A30000BFF04AB22462146CDE9015409480096EC
:105A4000FEF79AFA21460748FEF7BCFA21460548B8
:105A5000FDF7D0FF0348012110B0BDE8704000F011
:105A600043B800BF981B00200148FDF79FBE00BF50
:105A7000981B00200148FDF7A7BE00BF981B00201F
:105A80000148FDF741BF00BF981B002090F89030FF
:105A900013B1123000F04EBA704790F8903013B145
:105AA000123000F04DBA704710B490F8904024B115
:105AB0005DF8044B123000F049BA5DF8044B7047B2
:105AC00090F8903013B1123000F046BA70470000E1
:105AD0000048704700F8FF0708B5FFF7F9FF08BD59
:105AE000FF207047FF20704770471FB504460846E7
:105AF00001A9FFF7F8FB01A9204600F0B5F904B0B1
:105B000010BD2DE9F84F13F00108DDF82890044688
:105B10000D4617461E4602D1043B0C2B71D9FEE7F9
:105B20001B0A1046421C002BFAD19DF82CB0C0B2C3
:105B3000022838BF0220BBF10D0F28BF4FF00D0B1C
:105B4000CBF10F039842B8BFD8B2C0F10F039B4509
:105B5000C8BF5FFA83FB2B1E18BF0123B21E01389A
:105B600052109B015FFA80FA43EAC2034AEA030338
:105B700084F820315A46494604F2211009F04EFDBE
:105B800004F598713A460F239B453DD304F5907276
:105B90001146204600F06EF98DB1B5F57F4F94F8AF
:105BA000202194F82131C5F30720E9B232D24240D6
:105BB0004B4084F8202184F821314FF002085A46E6
:105BC000494684F830A104F2311009F027FD0BF2A8
:105BD0003110CBF10F020021204409F035FE0023E3
:105BE000C4E95537C4F85C3184F864B1102384F8F3
:105BF0006561C4F85051A4F86081A4F86231BDE831
:105C0000F88F134640468DE7013B01F8012DDBB2CA
:105C1000120AB9E783F0FE0384F8213194F82231A7
:105C200083EA156384F8223194F8233183EA15431B
:105C300084F8233194F82431584094F8253184F8BD
:105C40002401D243594084F8202184F825114FF0D3
:105C50000608B4E72DE9F843D0F85431154613444B
:105C6000D0F85021934204460E461DD84F1900F536
:105C700090794FF00008B74217D1D4F854311D4441
:105C8000D4F85031C4F854519D420BD1B4F860316E
:105C90002BB104F590721146204600F0EBF800237A
:105CA000A4F86031BDE8F883FEE7B4F86031102B4A
:105CB00006D14A464946204600F0DCF8A4F8608147
:105CC000B4F860315A1C2344A4F8602116F8010B83
:105CD00093F82021504083F82001CCE72DE9F74FBD
:105CE0001E469DF830300193D0F85C310D46D0F857
:105CF000581133448B42044629D86FF4987A914660
:105D000005EB0608AAEB000A00F5987BA8451FD111
:105D1000D4F85C311E44D4F85831C4F85C619E421A
:105D200065D3B4F860312BB104F59072114620466A
:105D300000F0A0F894F8642102F231100021C2F1C1
:105D40000F02204403B0BDE8F04F09F07DBDFEE72F
:105D5000B4F86221102A16D104F5A07094F8647189
:105D600002460AEB00018F4206DA10F8011D0131EC
:105D7000C9B201700029F4D05946204600F07AF8E3
:105D80000022A4F86221B4F86221019B511C89B25F
:105D900022441BBB2F78A4F8621192F840217A406C
:105DA00089F80020B4F86021102A08D104F5907217
:105DB0001146204600F05EF80022A4F86021B4F8F5
:105DC0006021511C2244A4F8601192F820114F4028
:105DD00082F82071013509F1010997E799F80070FF
:105DE000A4F8621192F8402157402F70DAE703B00F
:105DF000BDE8F08F38B5D0E956329A4204460D46D8
:105E000000D0FEE700F5A07200F5987100F032F8BE
:105E100004F21F12002394F86511994200DC38BD8A
:105E200012F8011F92F820004140E9540133F2E7D3
:105E300010B504681C6044685C60080E1872080C99
:105E40005872080A9872D9721A7310BD00F10803CB
:105E500010B503604FF48C738380044600F018F88B
:105E600000B1FEE7204610BD08B500F020F800B1F3
:105E7000FEE708BD08B500F034F800B1FEE708BD44
:105E800010B5044600F041F800B1FEE7204610BD11
:105E900008B540B18388B3F58C7F06D3006800F065
:105EA0003DFE002008BD0720FCE70120FAE713B5FE
:105EB0000446684600F038F87CB1A388B3F58C7FBF
:105EC0000DD3BDF8042000992068D20000F04AF8F4
:105ED000003818BF012002B010BD0720FBE70120E9
:105EE000F9E708B5134660B18288B2F58C7F0AD312
:105EF0000A460068012100F051FE003818BF012059
:105F000008BD0720FCE70120FAE708B540B1838807
:105F1000B3F58C7F06D3006800F00EFE002008BDAC
:105F20000720FCE70120FAE70A6802608A8882807D
:105F3000704700000148FFF7E5BC00BFBC1B002014
:105F40000148FFF7E3BA00BFBC1B00200148FFF780
:105F500027BC00BFBC1B00200148FFF7F5BA00BFFB
:105F6000BC1B0020E0B1D9B1C02A08B507D0B2F5FA
:105F7000807F12D0802A0DD06FF01F0008BD0C2347
:105F8000036000F108034360D208184600F07AFB72
:105F9000002008BD0A230360F3E70E230360F0E747
:105FA0006FF02000704700BF10B504461046D4E9DA
:105FB0000032063B9B0000F037FA002010BD00BF06
:105FC00010B504461046D4E90032063B9B0000F0B1
:105FD00003F8002010BD00BF2DE9F14F03F11C04B0
:105FE00002EB840C4FEA930B8A68CB680868496817
:105FF00000F046F93CE9F0006040694072407B40A7
:106000000BF1060E4EE083EA134480EA134582EA60
:10601000134746BA96EA3444604000F00F1684EA0B
:10602000063420F00F1684EA161054BA94EA0106DA
:10603000724002F00F1486EA043622F00F1486EA4A
:1060400014124CBA6540694001F00F1485EA04351A
:1060500021F00F1485EA14115CBA67407B4003F00D
:106060000F1487EA043723F00F1487EA141344BA95
:1060700044404DBA4D4056BA56405FBA5F4087EA39
:10608000174886EA174B84EA17464FEA38488BEAE6
:106090001B4485EA1B4788EA1B4580EA3440694077
:1060A00072407B4000F0703400F0803500F00F301B
:1060B00040EA440040EAD50080EA900404F033242A
:1060C00080EA8400604001F0703401F0803501F016
:1060D0000F3141EA440141EAD50181EA910404F01B
:1060E000332481EA8401614002F0703402F080358B
:1060F00002F00F3242EA440242EAD50282EA9204F6
:1061000004F0332482EA8402624003F0703403F026
:10611000803503F00F3343EA440343EAD50383EAAF
:10612000930404F0332483EA84036340C943DB43CC
:1061300081EA000483EA044686EA020183EA014315
:1061400082EA334583EA144383EA040484EA0007BD
:106150007FEA040A8AEA024A8AEA010B87EA1148BE
:106160008AEA374A80EA060181EA1A418AEA030A82
:1061700004EA0A00454088EA040707EA0B004140A8
:106180008AEA0B0608EA060084EA34428AEA3A46BA
:1061900002EA060358404540414087EA37438BEA0C
:1061A0003B4003EA000985EA090582EA0309464003
:1061B00009EA0606714085EA010005EA35464640CF
:1061C00006EA314181EA304181EA364606EA304644
:1061D00086EA354634400F4086EA010508EA05089C
:1061E00086EA3640024088EA020881EA31421340DA
:1061F0005C4080EA020309EA030987EA090767406D
:1062000088EA040806EA0A0601EA0B018AEA0B0496
:1062100025408AEA3A44204045408BEA3B4B02EA5B
:106220000B02564084EA0B04234059406E406940FB
:1062300087EA364080EA384080EA060380EA104464
:1062400081EA134585EA344585EA17427D4082EAB2
:10625000354180EA05403CE9F00060406940724009
:106260007B40BEF1010E3FF6CEAE00F05FF810BCF1
:1062700020606160A260E360BDE8F08F00F002BAC8
:1062800080EA101404F0F01480EA0410604081EAFF
:10629000111404F0F01481EA0411614082EA12142E
:1062A00004F0F01482EA0412624083EA131404F04A
:1062B000F01483EA0413634080EA102404F47F445A
:1062C00080EA0420604081EA112404F47F4481EADA
:1062D0000421614082EA122404F47F4482EA042209
:1062E000624083EA132404F47F4483EA0423634076
:1062F00081EA500404F0553480EA4400614083EAA6
:10630000520404F0553482EA4402634082EA900465
:1063100004F0333480EA8400624083EA910404F09C
:10632000333481EA84016340704700BF82EA9004FD
:1063300004F0333480EA8400624083EA910404F07C
:10634000333481EA8401634081EA500404F0553417
:1063500080EA4400614083EA520404F0553482EA42
:106360004402634080EA102404F47F4480EA04205D
:10637000604081EA112404F47F4481EA04216140F1
:1063800082EA122404F47F4482EA0422624083EA0F
:10639000132404F47F4483EA0423634080EA101446
:1063A00004F0F01480EA0410604081EA111404F053
:1063B000F01481EA0411614082EA121404F0F0142E
:1063C00082EA0412624083EA131404F0F01483EAB0
:1063D00004136340704700BF2DE9F04F4FF2F00205
:1063E00080EA1031114080EA0130484041088208BB
:1063F000C3084FF0000EA3E000F0113001F011319E
:1064000002F0113203F0113340EA410040EA820009
:1064100040EAC3004FF2F00280EA1031114080EAF6
:1064200001304840BDE8F08F2DE9F14F94464FEA26
:10643000930B8A68CB6808684968FFF721FF0BF166
:10644000060E33E083EA134480EA134582EA1347D9
:1064500046BA96EA3444604000F00F1684EA0634E7
:1064600020F00F1684EA161054BA94EA010672401E
:1064700002F00F1486EA043622F00F1486EA141292
:106480004CBA6540694001F00F1485EA043521F0EB
:106490000F1485EA14115CBA67407B4003F00F14B7
:1064A00087EA043723F00F1487EA1413BCE8F000DE
:1064B0006040694072407B4000F0E03400F01035ED
:1064C00000F00F3040EA540040EAC50080EA900432
:1064D00004F0332480EA8400604001F0E03401F0ED
:1064E000103501F00F3141EA540141EAC50181EA5A
:1064F000910404F0332481EA8401614002F0E03425
:1065000002F0103502F00F3242EA540242EAC502AC
:1065100082EA920404F0332482EA8402624003F0A7
:10652000E03403F0103503F00F3343EA540343EA39
:10653000C50383EA930404F0332483EA84036340AD
:1065400081EA324787EA134581EA354690EA060434
:1065500084EA034B82EA1B4280EA044484EA05444D
:1065600083EA144A85EA14448BEA044B84EA3744EC
:1065700081EA0B4181EA164104EA0A00454082EAB9
:1065800004082BEA080041408AEA0B0602EA0600EA
:1065900084EA34438AEA3A4603EA060778404540EB
:1065A000414088EA38478BEA3B4007EA000985EA20
:1065B000090583EA0709464006EA0906714085EAAB
:1065C000010005EA3546464006EA314181EA30419C
:1065D00081EA364606EA304686EA3546344008EA1D
:1065E000010886EA01052A4086EA364003405A40FF
:1065F00081EA31431F407C4080EA030709EA07092A
:1066000088EA0908544088EA020806EA0A0601EA0C
:106610000B018AEA0B0215408AEA3A4210404540D3
:106620008BEA3B4003405E404240174079404D407A
:106630004E40E443F64386EA18435D4085EA054050
:1066400083EA134386EA034183EA384284EA11432A
:1066500083EA04435FEA3343BEF1010E3FF6F2AE34
:106660003FF5CAAEBCE8F0006040694072407B4034
:10667000FFF75CFE10BC20606160A260E360BDE8D3
:10668000F08F00BF2DE9F04102F11C0506460746D8
:1066900000EB850851F8040B46F8040B043AF9D1D5
:1066A0004FF0010CFFF798FE5FEA302080EA0C0003
:1066B0004FEA4C0C4FEA1C2140F21B1201FB02F284
:1066C0008CEA020C1ECF41404A4053405C401EC63B
:1066D0002000464510D02C2DE4D03C2D06D1FFF7EC
:1066E0007BFE06CF41404A4006C6100006CF41401F
:1066F0004A4006C61000D5E736E90F00FFF7C0FD97
:1067000086E80F00043DF7D1BDE8F08190B4ADF507
:10671000016D00AF0023C7F80C380123C7F8083813
:1067200026E007F58063D7F80C28D7F8081843F857
:1067300022103B46D7F80828D7F80C1843F8221047
:10674000D7F808385A00D7F8083803F08003002B30
:1067500001D01B2300E000235A40D7F808385340EB
:10676000DBB2C7F80838D7F80C380133C7F80C3853
:10677000D7F80C38FF2BD4DD0023C7F80C380123E1
:10678000C7F808381BE0D7F80828D849D7F80C38DC
:1067900041F82320D7F808385A00D7F8083803F012
:1067A0008003002B01D01B2300E000235340DBB209
:1067B000C7F80838D7F80C380133C7F80C38D7F8C1
:1067C0000C38092BDFDDCA4B63221A70C94B00223B
:1067D00083F863200123C7F80C386DE03B46D7F8F7
:1067E0000C2853F82230C3F1FF0207F5806353F8F9
:1067F0002230C7F80838D7F80838C7F80438D7F86F
:1068000004385A00D7F80438DB111343DBB2C7F859
:106810000438D7F80828D7F804385340C7F80838A0
:10682000D7F804385A00D7F80438DB111343DBB229
:10683000C7F80438D7F80828D7F804385340C7F801
:106840000838D7F804385A00D7F80438DB11134356
:10685000DBB2C7F80438D7F80828D7F80438534013
:10686000C7F80838D7F804385A00D7F80438DB11CD
:106870001343DBB2C7F80438D7F8043883F0630356
:10688000D7F808285340C7F80838D7F80838D9B2DD
:10689000974AD7F80C3813440A461A70D7F80C38C0
:1068A000D9B2944AD7F8083813440A461A70D7F870
:1068B0000C380133C7F80C38D7F80C38FF2B8DDDB6
:1068C0000023C7F80C3806E1894AD7F80C3813447E
:1068D0001B78C7F80838D7F808385A00D7F80838AE
:1068E00003F08003002B01D01B2300E00023534062
:1068F000DBB2C7F80438D7F80428D7F80838534073
:10690000DBB2C7F80038D7F808381A02D7F80438CD
:106910005A40D7F808381B045A40D7F800381B06ED
:106920005A407549D7F80C3841F82320724AD7F8F5
:106930000C3852F823304FEA33627049D7F80C38DC
:1069400041F823206D4AD7F80C3852F823304FEA2B
:1069500033626B49D7F80C3841F82320684AD7F8DE
:106960000C3852F823304FEA33626649D7F80C38B6
:1069700041F823205F4AD7F80C3813441B78C7F836
:106980000838D7F80838002B18D03B469A6B3B469E
:10699000D7F8081853F821301A445B4B82FB0334B4
:1069A0001319D911D317C91A0B461B025B1AD11A36
:1069B00007F5806353F82130184600E00020D7F82F
:1069C0000838002B18D03B465A6A3B46D7F80818BF
:1069D00053F821301A444C4B82FB03341319D9115C
:1069E000D317C91A0B461B025B1AD11A07F580632D
:1069F00053F821301B0200E000235840D7F8083834
:106A0000002B18D03B465A6B3B46D7F8081853F872
:106A100021301A443C4B82FB03341319D911D3178C
:106A2000C91A0B461B025B1AD11A07F5806353F88B
:106A300021301B0400E000235840D7F80838002B11
:106A400018D03B46DA6A3B46D7F8081853F821308D
:106A50001A442D4B82FB03341319D911D317C91AC9
:106A60000B461B025B1AD11A07F5806353F82130DD
:106A70001B0600E0002380EA03022449D7F80C3803
:106A800041F82320214AD7F80C3852F823304FEA36
:106A900033621F49D7F80C3841F823201C4AD7F835
:106AA0000C3852F823304FEA33621A49D7F80C38C1
:106AB00041F82320174AD7F80C3852F823304FEA10
:106AC00033621549D7F80C3841F82320D7F80C3831
:106AD0000133C7F80C38D7F80C38FF2B7FF7F4AE2A
